:020000040800F2
:1000000000500020450A0008690800086F08000831
:10001000750800087B08000881080008000000003F
:100020000000000000000000000000008708000839
:1000300093080008000000009F080008AB080008B3
:100040008D0A00088D0A00088D0A00088D0A000834
:100050008D0A00088D0A00088D0A00088D0A000824
:100060008D0A00088D0A00088D0A00088D0A000814
:100070008D0A00088D0A00088D0A00088D0A000804
:100080008D0A00088D0A00088D0A00088D0A0008F4
:100090008D0A00088D0A00088D0A00088D0A0008E4
:1000A0008D0A00088D0A00088D0A00088D0A0008D4
:1000B0008D0A00088D0A00088D0A00088D0A0008C4
:1000C0008D0A00088D0A00088D0A00088D0A0008B4
:1000D0008D0A00088D0A00088D0A00088D0A0008A4
:1000E0008D0A00088D0A00088D0A00080000000033
:1000F0000000000000000000000000000000000000
:0C01000000000000000000005FF808F1A3
:10010C0010B5054C237833B9044B13B10448AFF345
:10011C0000800123237010BDEC00002000000000C3
:10012C007845000808B5034B1BB103490348AFF3EE
:10013C00008008BD00000000F00000207845000899
:10014C0080B584B000AFF860B9603B601346FB71BA
:10015C00FB68BA681A60FB799AB2FB681A81FB6873
:10016C003A685A603B7E9AB2FB685A81FB685868C1
:10017C00FB685B890022194600F0CFFF322000F0AB
:10018C00E3FC00BF1037BD4680BD80B586B000AF24
:10019C0078600B46FB707B68FA781A7300237B61DE
:1001AC0000BF7B681A687B681B891946104600F0F3
:1001BC009DFF0346002BF4D17B6858687B685B89F4
:1001CC000022194600F0A9FF0023FB7325E07B6891
:1001DC0058687B685B890122194600F09EFF7B689A
:1001EC001A687B681B891946104600F07FFF03468E
:1001FC007B737B695B007B617B7B002B02D07B6913
:10020C0001337B617B6858687B685B8900221946E7
:10021C0000F083FFFB7B0133FB73FB7B172BD6D9E1
:10022C000023BB7312E07B6858687B685B890122F2
:10023C00194600F072FF7B6858687B685B89002266
:10024C00194600F06AFFBB7B0133BB737B681B7BD9
:10025C00BA7B9A42E7D37B6903F40003002B03D0EB
:10026C004FF07F433B6101E000233B613A697B69BE
:10027C00134418461837BD4680BD000080B58CB0BD
:10028C0002AF00F0FFFB00F07BF800F02BF900F060
:10029C00B3F800F0FDF8002300934FF4E133002293
:1002AC002021002002F0CCF82F4803F06FF94FF416
:1002BC0080722E492E4803F017F902F03DF92D4BB0
:1002CC0001225A8002F054F92A4B5B88002B16D07D
:1002DC00381D10230093254B08222449FFF730FFCB
:1002EC003B1D01211846FFF750FF78623B1D022190
:1002FC001846FFF74AFF38621E4B00225A801D4BEE
:10030C001B88002BDED0381D10230093174B0822BE
:10031C001649FFF715FF3B1D01211846FFF735FF66
:10032C0002467B6AD31AFB613B1D02211846FFF77C
:10033C002CFF02463B6AD31ABB61FA69BB691344B2
:10034C000D4A82FB03125211DB17D31A7B617B69B6
:10035C001B149AB2094B1A807B699AB2074B5A80CC
:10036C00044B00221A80ADE7080100200008014070
:10037C00500100209C0100201F85EB5198010020AA
:10038C0080B590B000AF07F1180328220021184661
:10039C0003F06BFA3B1D00221A605A609A60DA6017
:1003AC001A610223BB610123BB621023FB62002391
:1003BC007B6307F11803184600F0C8FE0346002BB8
:1003CC0001D000F0AAF90F237B600023BB6000234F
:1003DC00FB6000233B6100237B613B1D0021184621
:1003EC0001F036F90346002B01D000F096F900BF5E
:1003FC004037BD4680BD000080B586B000AF07F128
:10040C00080300221A605A609A60DA603B460022A8
:10041C001A605A601C4B1D4A1A601B4B47225A60CB
:10042C00194B00229A60184B3122DA60164B0022CD
:10043C001A61154B00229A61134801F097FA034692
:10044C00002B01D000F069F94FF48053BB6007F129
:10045C00080319460C4801F059FB0346002B01D048
:10046C0000F05BF900233B6000237B603B461946A0
:10047C00054801F00BFD0346002B01D000F04DF9AF
:10048C0000BF1837BD4680BD0801002000040040A5
:10049C0080B500AF114B124A1A60104B4FF4E13289
:1004AC005A600E4B00229A600C4B0022DA600B4B08
:1004BC0000221A61094B0C225A61084B00229A61E6
:1004CC00064B0022DA61054801F03EFD0346002B85
:1004DC0001D000F022F900BF80BD00BF5001002008
:1004EC000038014080B586B000AF07F10803002248
:1004FC001A605A609A60DA60184B9B69174A43F08D
:10050C0004039361154B9B6903F004037B607B68C8
:10051C0000224FF4A871124800F0FFFD2823BB60A5
:10052C000023FB6000233B6107F1080319460C48CC
:10053C0000F058FC4FF4A873BB600123FB60002350
:10054C003B6102237B6107F108031946044800F064
:10055C0049FC00BF1837BD4680BD00BF00100240EB
:10056C000008014080B485B000AF78600B467B80FA
:10057C0013463B800023FB737B88B3F57A7F2AD329
:10058C007A883B88134440F2EA32934223DC7B881E
:10059C00154A12889B1ABB6019E0144ABB6832F8E2
:1005AC0013301B0A99B27B685A1C7A60CAB21A7053
:1005BC000E4ABB6832F813107B685A1C7A60CAB2B8
:1005CC001A70BB680133BB603B88013B3B803B88A6
:1005DC00002BE2D101E00123FB73FB7B184614379F
:1005EC00BD4680BC704700BF000000209801002071
:1005FC0080B487B000AFF860084611461A4603462F
:10060C007B810B463B811346FB710023FB757B8979
:10061C00B3F5FA6F54D37A893B89134440F2D27202
:10062C0093424DDC7B892A4A12889B1A3B61FB79E9
:10063C00002B1CD0012B3ED044E0264A3B6932F8FB
:10064C0013301B0A99B2FB685A1CFA60CAB21A70B2
:10065C00204A3B6932F81310FB685A1CFA60CAB284
:10066C001A703B6901333B613B89013B3B813B8900
:10067C00002BE2D123E0FB685A1CFA601B789BB27A
:10068C001B0299B2134A3B6922F81310FB685A1CDF
:10069C00FA6019780F4A3B6932F813208BB2134376
:1006AC0099B20C4A3B6922F813103B6901333B6148
:1006BC003B89013B3B813B89002BDCD102E001E013
:1006CC000123FB75FB7D18461C37BD4680BC70476B
:1006DC00020000209C01002080B485B000AFF860BF
:1006EC00084611461A4603467B810B463B8113464E
:1006FC00FB71012318461437BD4680BC704780B48B
:10070C0083B000AF78600B467B8013463B8001239F
:10071C0018460C37BD4680BC704780B400AF72B62B
:10072C0000BFFEE780B485B000AF154B9B69144A3F
:10073C0043F001039361124B9B6903F00103BB600F
:10074C00BB680F4BDB690E4A43F08053D3610C4BF3
:10075C00DB6903F080537B607B680A4B5B68FB6052
:10076C00FB6823F0E063FB60FB6843F00073FB6005
:10077C00044AFB68536000BF1437BD4680BC704709
:10078C00001002400000014080B485B000AF7860DA
:10079C007B681B68094A93420BD1094BDB69084AF9
:1007AC0043F00203D361064BDB6903F00203FB60E9
:1007BC00FB6800BF1437BD4680BC70470004004086
:1007CC000010024080B588B000AF786007F11003CC
:1007DC0000221A605A609A60DA607B681B681C4AB7
:1007EC00934231D11B4B9B691A4A43F4804393616A
:1007FC00184B9B6903F48043FB60FB68154B9B69AA
:10080C00144A43F004039361124B9B6903F00403F5
:10081C00BB60BB684FF400733B6102237B61032315
:10082C00FB6107F1100319460B4800F0DBFA4FF49B
:10083C0080633B6100237B610023BB6107F11003E4
:10084C001946054800F0CEFA00BF2037BD4680BDE2
:10085C0000380140001002400008014080B400AF95
:10086C00FEE780B400AFFEE780B400AFFEE780B4D3
:10087C0000AFFEE780B400AFFEE780B400AF00BF6E
:10088C00BD4680BC704780B400AF00BFBD4680BC85
:10089C00704780B400AF00BFBD4680BC704780B5C8
:1008AC0000AF00F035F900BF80BD80B400AF01236C
:1008BC001846BD4680BC704780B582B000AF7860EA
:1008CC00396003F021F8034616221A604FF0FF330B
:1008DC0018460837BD4680BD80B582B000AF786041
:1008EC004FF0FF317868FFF7E7FFFEE780B586B081
:1008FC0000AFF860B9607A6000237B610AE0AFF367
:10090C0000800146BB685A1CBA60CAB21A707B6977
:10091C0001337B617A697B689A42F0DB7B6818460D
:10092C001837BD4680BD80B586B000AFF860B960A1
:10093C007A6000237B6109E0BB685A1CBA601B78A3
:10094C001846AFF300807B6901337B617A697B6861
:10095C009A42F1DB7B6818461837BD4680BD80B4DF
:10096C0083B000AF78604FF0FF3318460C37BD46AC
:10097C0080BC704780B483B000AF786039603B684E
:10098C004FF400525A60002318460C37BD4680BC09
:10099C00704780B483B000AF7860012318460C37E1
:1009AC00BD4680BC704780B485B000AFF860B960BC
:1009BC007A60002318461437BD4680BC704700008F
:1009CC0080B586B000AF7860144A154BD31A7B61A2
:1009DC007B693B61134B1B68002B02D1114B124AF4
:1009EC001A60104B1A687B6813443A699A4207D212
:1009FC0002F08AFF03460C221A604FF0FF3309E025
:100A0C00084B1B68FB60074B1A687B681344054A4C
:100A1C001360FB6818461837BD4680BD0050002097
:100A2C0000040000A00100207004002080B400AF7E
:100A3C0000BFBD4680BC7047FFF7F8FF0B480C4960
:100A4C000C4A002302E0D458C4500433C4188C421E
:100A5C00F9D3094A094C002301E013600432A24285
:100A6C00FBD302F057FFFFF709FC70470000002092
:100A7C00EC00002084490008EC00002070040020E9
:100A8C00FEE7000080B500AF084B1B68074A43F037
:100A9C0010031360032000F02BF90F2000F008F86E
:100AAC00FFF740FE0023184680BD00BF0020024027
:100ABC0080B582B000AF7860124B1A68124B1B786D
:100ACC0019464FF47A73B3FBF1F3B2FBF3F3184608
:100ADC0000F035F90346002B01D001230EE07B68B2
:100AEC000F2B0AD8002279684FF0FF3000F00BF979
:100AFC00064A7B681360002300E001231846083780
:100B0C00BD4680BD040000200C0000200800002021
:100B1C0080B400AF054B1B781A46054B1B68134479
:100B2C00034A136000BFBD4680BC70470C00002018
:100B3C00A401002080B400AF024B1B681846BD46D0
:100B4C0080BC7047A401002080B584B000AF7860F1
:100B5C00FFF7F0FFB8607B68FB60FB68B3F1FF3F09
:100B6C0005D00A4B1B781A46FB681344FB6000BF88
:100B7C00FFF7E0FF0246BB68D31AFA689A42F7D82F
:100B8C0000BF00BF1037BD4680BD00BF0C00002069
:100B9C0080B485B000AF78607B6803F00703FB601E
:100BAC000C4BDB68BB60BA684FF6FF031340BB60AD
:100BBC00FB681A02BB68134343F0BF6343F4003372
:100BCC00BB60044ABB68D36000BF1437BD4680BC11
:100BDC00704700BF00ED00E080B400AF044BDB6851
:100BEC001B0A03F007031846BD4680BC704700BFC4
:100BFC0000ED00E080B483B000AF03463960FB71B8
:100C0C0097F90730002B0ADB3B68DAB20C4997F9ED
:100C1C0007301201D2B20B4483F800230AE03B6880
:100C2C00DAB20849FB7903F00F03043B1201D2B28C
:100C3C000B441A7600BF0C37BD4680BC704700BF12
:100C4C0000E100E000ED00E080B489B000AFF86096
:100C5C00B9607A60FB6803F00703FB61FB69C3F1C1
:100C6C000703042B28BF0423BB61FB690433062B49
:100C7C0002D9FB69033B00E000237B614FF0FF329C
:100C8C00BB6902FA03F3DA43BB681A407B699A40EA
:100C9C004FF0FF317B6901FA03F3D9437B680B40BA
:100CAC00134318462437BD4680BC704780B582B0CC
:100CBC0000AF78607B68013BB3F1807F01D30123E7
:100CCC000FE00A4A7B68013B53600F214FF0FF3065
:100CDC00FFF790FF054B00229A60044B07221A6025
:100CEC00002318460837BD4680BD00BF10E000E069
:100CFC0080B582B000AF78607868FFF749FF00BF1D
:100D0C000837BD4680BD80B586B000AF0346B960DC
:100D1C007A60FB7300237B61FFF75EFF78617A6872
:100D2C00B9687869FFF790FF024697F90F301146C2
:100D3C001846FFF75FFF00BF1837BD4680BD80B572
:100D4C0082B000AF78607868FFF7B0FF03461846B2
:100D5C000837BD4680BD80B485B000AF78600023F5
:100D6C00FB737B6893F82130DBB2022B08D07B68D5
:100D7C0004229A637B68002283F82020012320E060
:100D8C007B681B681A687B681B6822F00E021A606D
:100D9C007B681B681A687B681B6822F001021A606A
:100DAC007B681A6C7B68DB6B012101FA02F25A60DA
:100DBC007B68012283F821207B68002283F82020A5
:100DCC00FB7B18461437BD4680BC704780B483B09B
:100DDC0000AF78607B689B6B18460C37BD4680BCB7
:100DEC007047000080B48BB000AF7860396000238E
:100DFC007B6200233B6269E101227B6A02FA03F306
:100E0C00FB613B681B68FA691340BB61BA69FB69FB
:100E1C009A4240F058813B685B689A4A93425ED094
:100E2C00984A934275D8984A934258D0964A93421E
:100E3C006FD8964A934252D0944A934269D8944AB6
:100E4C0093424CD0924A934263D8924A934246D0F2
:100E5C00904A93425DD8122B2AD8122B59D801A252
:100E6C0052F823F0EB0E0008C50E0008D70E000850
:100E7C00190F00081F0F00081F0F00081F0F000894
:100E8C001F0F00081F0F00081F0F00081F0F00087E
:100E9C001F0F00081F0F00081F0F00081F0F00086E
:100EAC001F0F00081F0F0008CD0E0008E10E0008F0
:100EBC00794A934213D02CE03B68DB683B6229E013
:100ECC003B68DB6804333B6224E03B68DB68083337
:100EDC003B621FE03B68DB680C333B621AE03B680B
:100EEC009B68002B02D104233B6213E03B689B6898
:100EFC00012B05D108233B627B68FA691A6109E072
:100F0C0008233B627B68FA695A6103E000233B6269
:100F1C0000E000BFBB69FF2B01D87B6801E07B6858
:100F2C0004337B61BB69FF2B02D87B6A9B0002E018
:100F3C007B6A083B9B003B617B691A680F213B690C
:100F4C0001FA03F3DB431A40396A3B6901FA03F3F4
:100F5C001A437B691A603B685B6803F08053002B73
:100F6C0000F0B1804D4B9B694C4A43F001039361F7
:100F7C004A4B9B6903F00103BB60BB68484A7B6A20
:100F8C009B08023352F82330FB607B6A03F00303A7
:100F9C009B000F2202FA03F3DB43FA681340FB6059
:100FAC007B68404A934213D07B683F4A93420DD0F2
:100FBC007B683E4A934207D07B683D4A934201D1FD
:100FCC00032306E0042304E0022302E0012300E0F3
:100FDC0000237A6A02F0030292009340FA681343EA
:100FEC00FB602F497B6A9B080233FA6841F8232087
:100FFC003B685B6803F48013002B06D02D4B9A687A
:10100C002C49BB6913438B6006E02A4B9A68BB6979
:10101C00DB43284913408B603B685B6803F4001387
:10102C00002B06D0234BDA682249BB691343CB60F3
:10103C0006E0204BDA68BB69DB431E491340CB60EA
:10104C003B685B6803F40033002B06D0194B5A68DD
:10105C001849BB6913434B6006E0164B5A68BB69D1
:10106C00DB43144913404B603B685B6803F48033EB
:10107C00002B21D00F4B1A680E49BB6913430B6030
:10108C0021E000BF000032100000311000002210DF
:10109C00000021100000121000001110001002407E
:1010AC000000014000080140000C0140001001400C
:1010BC0000140140000401400B4B1A68BB69DB4370
:1010CC00094913400B607B6A01337B623B681A68E9
:1010DC007B6A22FA03F3002B7FF48EAE00BF00BFB5
:1010EC002C37BD4680BC70470004014080B485B0ED
:1010FC0000AF78600B467B807B689A687B881340D6
:10110C00002B02D00123FB7301E00023FB73FB7B5C
:10111C0018461437BD4680BC704780B483B000AF0E
:10112C0078600B467B8013467B707B78002B03D05A
:10113C007A887B681A6103E07B881A047B681A61E1
:10114C0000BF0C37BD4680BC7047000080B586B030
:10115C0000AF78607B68002B01D1012372E27B68C1
:10116C001B6803F00103002B00F08780924B5B6837
:10117C0003F00C03042B0CD08F4B5B6803F00C03B7
:10118C00082B12D18C4B5B6803F48033B3F5803F92
:10119C000BD1894B1B6803F40033002B6CD07B689C
:1011AC005B68002B68D101234CE27B685B68B3F56C
:1011BC00803F06D1804B1B687F4A43F48033136019
:1011CC002EE07B685B68002B0CD17B4B1B687A4A4A
:1011DC0023F480331360784B1B68774A23F4802305
:1011EC0013601DE07B685B68B3F5A02F0CD1724BCC
:1011FC001B68714A43F4802313606F4B1B686E4A63
:10120C0043F4803313600BE06B4B1B686A4A23F486
:10121C0080331360684B1B68674A23F48023136088
:10122C007B685B68002B13D0FFF784FC386108E007
:10123C00FFF780FC02463B69D31A642B01D90323C8
:10124C0000E25D4B1B6803F40033002BF0D014E07C
:10125C00FFF770FC386108E0FFF76CFC02463B6955
:10126C00D31A642B01D90323ECE1534B1B6803F411
:10127C000033002BF0D100E000BF7B681B6803F04B
:10128C000203002B63D04C4B5B6803F00C03002B68
:10129C000BD0494B5B6803F00C03082B1CD1464B5D
:1012AC005B6803F48033002B16D1434B1B6803F0AF
:1012BC000203002B05D07B681B69012B01D0012395
:1012CC00C0E13D4B1B6823F0F8027B685B69DB00D7
:1012DC00394913430B603AE07B681B69002B20D023
:1012EC00364B01221A60FFF725FC386108E0FFF746
:1012FC0021FC02463B69D31A022B01D90323A1E13D
:10130C002D4B1B6803F00203002BF0D02A4B1B68FB
:10131C0023F0F8027B685B69DB00274913430B6001
:10132C0015E0264B00221A60FFF704FC386108E038
:10133C00FFF700FC02463B69D31A022B01D90323A9
:10134C0080E11D4B1B6803F00203002BF0D17B687E
:10135C001B6803F00803002B3AD07B689B69002BB9
:10136C0019D0174B01221A60FFF7E4FB386108E033
:10137C00FFF7E0FB02463B69D31A022B01D903238A
:10138C0060E10D4B5B6A03F00203002BF0D00120EF
:10139C0000F0CEFA1CE00A4B00221A60FFF7CAFBE1
:1013AC0038610FE0FFF7C6FB02463B69D31A022BEC
:1013BC0008D9032346E100BF00100240000042425E
:1013CC0080044242924B5B6A03F00203002BE9D18A
:1013DC007B681B6803F00403002B00F0A68000233D
:1013EC00FB758B4BDB6903F08053002B0DD1884BC5
:1013FC00DB69874A43F08053D361854BDB6903F08B
:10140C008053BB60BB680123FB75824B1B6803F4E4
:10141C008073002B18D17F4B1B687E4A43F480737A
:10142C001360FFF787FB386108E0FFF783FB024688
:10143C003B69D31A642B01D9032303E1754B1B6859
:10144C0003F48073002BF0D07B68DB68012B06D192
:10145C006F4B1B6A6E4A43F0010313622DE07B68ED
:10146C00DB68002B0CD16A4B1B6A694A23F0010321
:10147C001362674B1B6A664A23F0040313621CE079
:10148C007B68DB68052B0CD1614B1B6A604A43F00F
:10149C00040313625E4B1B6A5D4A43F00103136243
:1014AC000BE05B4B1B6A5A4A23F001031362584B47
:1014BC001B6A574A23F0040313627B68DB68002B1A
:1014CC0015D0FFF737FB38610AE0FFF733FB024614
:1014DC003B69D31A41F28832934201D90323B1E01C
:1014EC004B4B1B6A03F00203002BEED014E0FFF70A
:1014FC0021FB38610AE0FFF71DFB02463B69D31A5A
:10150C0041F28832934201D903239BE0404B1B6A82
:10151C0003F00203002BEED1FB7D012B05D13C4BDC
:10152C00DB693B4A23F08053D3617B68DB69002B7A
:10153C0000F08780364B5B6803F00C03082B61D0FE
:10154C007B68DB69022B46D1334B00221A60FFF714
:10155C00F1FA386108E0FFF7EDFA02463B69D31A5D
:10156C00022B01D903236DE0294B1B6803F0007398
:10157C00002BF0D17B681B6AB3F5803F08D1244B5C
:10158C005B6823F400327B689B68214913434B60F2
:10159C001F4B5B6823F474127B68196A7B685B6A67
:1015AC000B431B4913434B601B4B01221A60FFF783
:1015BC00C1FA386108E0FFF7BDFA02463B69D31A5D
:1015CC00022B01D903233DE0114B1B6803F0007380
:1015DC00002BF0D035E0104B00221A60FFF7AAFA6E
:1015EC00386108E0FFF7A6FA02463B69D31A022BD2
:1015FC0001D9032326E0064B1B6803F00073002B74
:10160C00F0D11EE07B68DB69012B07D1012319E0C7
:10161C000010024000700040600042420B4B5B68BF
:10162C00FB60FB6803F480327B681B6A9A4206D12C
:10163C00FB6803F470127B685B6A9A4201D0012349
:10164C0000E0002318461837BD4680BD001002404C
:10165C0080B584B000AF786039607B68002B01D115
:10166C000123D0E06A4B1B6803F007033A689A42E7
:10167C0010D9674B1B6823F0070265493B6813437D
:10168C000B60634B1B6803F007033A689A4201D066
:10169C000123B8E07B681B6803F00203002B20D009
:1016AC007B681B6803F00403002B05D0594B5B6867
:1016BC00584A43F4E06353607B681B6803F00803EB
:1016CC00002B05D0534B5B68524A43F46053536074
:1016DC00504B5B6823F0F0027B689B684D491343C9
:1016EC004B607B681B6803F00103002B40D07B68C8
:1016FC005B68012B07D1474B1B6803F40033002BAD
:10170C0015D101237FE07B685B68022B07D1414B2D
:10171C001B6803F00073002B09D1012373E03D4BD0
:10172C001B6803F00203002B01D101236BE0394B42
:10173C005B6823F003027B685B68364913434B609C
:10174C00FFF7F8F9F8600AE0FFF7F4F90246FB68D6
:10175C00D31A41F28832934201D9032353E02D4B23
:10176C005B6803F00C027B685B689B009A42EBD1D0
:10177C00274B1B6803F007033A689A4210D2244B9C
:10178C001B6823F0070222493B6813430B60204B74
:10179C001B6803F007033A689A4201D0012332E038
:1017AC007B681B6803F00403002B08D0194B5B68A3
:1017BC0023F4E0627B68DB68164913434B607B685B
:1017CC001B6803F00803002B09D0124B5B6823F451
:1017DC0060527B681B69DB000E4913434B6000F0C1
:1017EC0021F802460B4B5B681B0903F00F030A49F7
:1017FC00CB5C22FA03F3094A1360094B1B681846A9
:10180C00FFF756F9002318461037BD4680BD00BFC0
:10181C000020024000100240904600080400002006
:10182C000800002080B487B000AF0023FB600023C9
:10183C00BB6000237B6100237B6000233B611E4B5C
:10184C005B68FB60FB6803F00C03042B02D0082BD5
:10185C0003D027E0194B3B6127E0FB689B0C03F09E
:10186C000F03174AD35C7B60FB6803F48033002BB7
:10187C0010D0114B5B685B0C03F00103114AD35C75
:10188C00BB607B680D4A03FB02F2BB68B2FBF3F34F
:10189C007B6104E07B680C4A02FB03F37B617B6990
:1018AC003B6102E0054B3B6100BF3B6918461C37AE
:1018BC00BD4680BC704700BF0010024000127A0089
:1018CC00A8460008B846000800093D0080B400AFE7
:1018DC00024B1B681846BD4680BC704704000020B4
:1018EC0080B500AFFFF7F2FF0246054B5B681B0AA1
:1018FC0003F007030349CB5C22FA03F3184680BDBF
:10190C0000100240A046000880B500AFFFF7DEFFD4
:10191C000246054B5B68DB0A03F007030349CB5C0B
:10192C0022FA03F3184680BD00100240A0460008BE
:10193C0080B485B000AF78600A4B1B680A4AA2FBE2
:10194C0003235B0A7A6802FB03F3FB6000BFFB68AE
:10195C005A1EFA60002BF9D100BF00BF1437BD46E8
:10196C0080BC704704000020D34D621080B582B05B
:10197C0000AF78607B68002B01D1012341E07B68CC
:10198C0093F83D30DBB2002B06D17B68002283F844
:10199C003C207868FEF7F8FE7B68022283F83D2035
:1019AC007B681A687B6804331946104600F076F998
:1019BC007B68012283F846207B68012283F83E2055
:1019CC007B68012283F83F207B68012283F840204A
:1019DC007B68012283F841207B68012283F8422036
:1019EC007B68012283F843207B68012283F8442022
:1019FC007B68012283F845207B68012283F83D2017
:101A0C00002318460837BD4680BD000080B485B061
:101A1C0000AF78607B6893F83D30DBB2012B01D0CE
:101A2C0001233AE07B68022283F83D207B681B6827
:101A3C00DA687B681B6842F00102DA607B681B681D
:101A4C00184A93420ED07B681B68B3F1804F09D0C3
:101A5C007B681B68144A934204D07B681B68134A4A
:101A6C00934211D17B681B689B6803F00703FB60F2
:101A7C00FB68062B10D07B681B681A687B681B6898
:101A8C0042F001021A6007E07B681B681A687B68E9
:101A9C001B6842F001021A60002318461437BD4639
:101AAC0080BC7047002C014000040040000800403E
:101ABC0080B483B000AF78607B681B68DA687B68A1
:101ACC001B6822F00102DA607B681B681A6A41F21B
:101ADC0011131340002B0FD17B681B681A6A40F25C
:101AEC0044431340002B07D17B681B681A687B6842
:101AFC001B6822F001021A607B68012283F83D20EA
:101B0C00002318460C37BD4680BC704780B584B0A6
:101B1C0000AF786039600023FB737B6893F83C302E
:101B2C00012B01D10223B4E07B68012283F83C2015
:101B3C007B68022283F83D207B681B689B68BB6036
:101B4C00BB6823F07703BB60BB6823F47F43BB60A7
:101B5C007B681B68BA689A603B681B68B3F5005FCA
:101B6C003ED0B3F5005F00F28780B3F5805F00F0E4
:101B7C008680B3F5805F7FD8702B1AD0702B7BD802
:101B8C00602B50D0602B77D8502B3CD0502B73D877
:101B9C00402B58D0402B6FD8302B64D0302B6BD8C7
:101BAC00202B60D0202B67D8002B5CD0102B5AD068
:101BBC0062E07B6818683B6899683B685A683B68C8
:101BCC00DB6800F044F97B681B689B68BB60BB68F2
:101BDC0043F07703BB607B681B68BA689A604FE080
:101BEC007B6818683B6899683B685A683B68DB6897
:101BFC0000F02DF97B681B689A687B681B6842F4BF
:101C0C0080429A603CE07B6818683B6859683B6886
:101C1C00DB681A4600F0A4F87B681B685021184654
:101C2C0000F0FBF82CE07B6818683B6859683B684F
:101C3C00DB681A4600F0C2F87B681B686021184606
:101C4C0000F0EBF81CE07B6818683B6859683B684F
:101C5C00DB681A4600F084F87B681B684021184644
:101C6C0000F0DBF80CE07B681A683B681B681946CF
:101C7C00104600F0D2F803E00123FB7300E000BF34
:101C8C007B68012283F83D207B68002283F83C208E
:101C9C00FB7B18461037BD4680BD000080B485B074
:101CAC0000AF786039607B681B68FB607B68294AF1
:101CBC0093420BD07B68B3F1804F07D07B68264AE8
:101CCC00934203D07B68254A934208D1FB6823F0EA
:101CDC007003FB603B685B68FA681343FB607B68CE
:101CEC001C4A93420BD07B68B3F1804F07D07B68C2
:101CFC00194A934203D07B68184A934208D1FB6877
:101D0C0023F44073FB603B68DB68FA681343FB60A9
:101D1C00FB6823F080023B685B691343FB607B68C4
:101D2C00FA681A603B689A687B68DA623B681A68E2
:101D3C007B689A627B68074A934203D13B681A69B5
:101D4C007B681A637B6801225A6100BF1437BD4659
:101D5C0080BC7047002C014000040040000800408B
:101D6C0080B487B000AFF860B9607A60FB681B6A1A
:101D7C007B61FB681B6A23F00102FB681A62FB683B
:101D8C009B693B613B6923F0F0033B617B681B0162
:101D9C003A6913433B617B6923F00A037B617A69DF
:101DAC00BB6813437B61FB683A699A61FB687A698B
:101DBC001A6200BF1C37BD4680BC704780B487B028
:101DCC0000AFF860B9607A60FB681B6A7B61FB68E6
:101DDC001B6A23F01002FB681A62FB689B693B616B
:101DEC003B6923F470433B617B681B033A691343E3
:101DFC003B617B6923F0A0037B61BB681B017A69A3
:101E0C0013437B61FB683A699A61FB687A691A62D1
:101E1C0000BF1C37BD4680BC704780B485B000AF96
:101E2C00786039607B689B68FB60FB6823F070030B
:101E3C00FB603A68FB68134343F00703FB607B6865
:101E4C00FA689A6000BF1437BD4680BC704780B4F6
:101E5C0087B000AFF860B9607A603B60FB689B6844
:101E6C007B617B6923F47F437B613B681A027B684F
:101E7C001A43BB6813437A6913437B61FB687A6925
:101E8C009A6000BF1C37BD4680BC704780B485B0DB
:101E9C0000AF786039607B6893F83C30012B01D13E
:101EAC00022346E07B68012283F83C207B680222F7
:101EBC0083F83D207B681B685B68FB607B681B6854
:101ECC009B68BB60FB6823F07003FB603B681B687E
:101EDC00FA681343FB607B681B68FA685A607B687E
:101EEC001B68164A93420ED07B681B68B3F1804F77
:101EFC0009D07B681B68124A934204D07B681B682C
:101F0C00104A93420CD1BB6823F08003BB603B6842
:101F1C005B68BA681343BB607B681B68BA689A60DD
:101F2C007B68012283F83D207B68002283F83C20EB
:101F3C00002318461437BD4680BC7047002C014066
:101F4C00000400400008004080B582B000AF78600B
:101F5C007B68002B01D1012342E07B6893F8413070
:101F6C00DBB2002B06D17B68002283F84020786816
:101F7C00FEF728FC7B68242283F841207B681B68D1
:101F8C00DA687B681B6822F40052DA60786800F02B
:101F9C00C9F97B681B681A697B681B6822F490423C
:101FAC001A617B681B685A697B681B6822F02A02DD
:101FBC005A617B681B68DA687B681B6842F40052C4
:101FCC00DA607B6800225A647B68202283F8412007
:101FDC007B68202283F842207B6800225A6300230E
:101FEC0018460837BD4680BD80B485B000AFF86098
:101FFC00B9601346FB80FB6893F84130DBB2202BB1
:10200C0021D1BB68002B02D0FB88002B01D101230E
:10201C001AE0FB68BA681A62FB68FA889A84FB6853
:10202C00FA88DA84FB6800225A64FB68212283F860
:10203C004120FB681B68DA68FB681B6842F0800271
:10204C00DA60002300E0022318461437BD4680BC3A
:10205C00704780B584B000AFF860B9601346FB8060
:10206C00FB6893F84230DBB2202B12D1BB68002BFB
:10207C0002D0FB88002B01D101230BE0FB6800226E
:10208C001A63FB881A46B968F86800F012F903461F
:10209C0000E0022318461037BD4680BD80B58EB0D7
:1020AC0000AF78607B681B680C333B623B6A53E87B
:1020BC00003FFB61FB6923F0C0037B637B681B68FB
:1020CC000C337A6BFA62BB62B96AFA6A41E8002394
:1020DC007B627B6A002BE5D17B681B685B6903F034
:1020EC008003002B36D07B681B681433FB60FB68C5
:1020FC0053E8003FBB60BB6823F080033B637B6805
:10210C001B6814333A6BBA617B617969BA6941E82F
:10211C0000233B613B69002BE5D17B689B6B002B5B
:10212C0018D07B689B6B00225A637B689B6B1846AC
:10213C00FEF711FE0346002B0CD07B689B6B1846F8
:10214C00FEF744FE0346202B04D17B6810225A6410
:10215C00032307E07B680022DA847B68202283F863
:10216C004120002318463837BD4680BD80B59AB053
:10217C0000AF78607B681B680C33BB64BB6C53E8A6
:10218C00003F7B647B6C23F490737B667B681B68DD
:10219C000C337A6E7A653B65396D7A6D41E80023B4
:1021AC00FB64FB6C002BE5D17B681B6814337B63F1
:1021BC007B6B53E8003F3B633B6B23F001033B66B7
:1021CC007B681B6814333A6E3A64FB63F96B3A6CA8
:1021DC0041E80023BB63BB6B002BE5D17B681B6B19
:1021EC00012B19D17B681B680C333B623B6A53E8AB
:1021FC00003FFB61FB6923F01003FB657B681B68E8
:10220C000C33FA6DFA62BB62B96AFA6A41E80023D0
:10221C007B627B6A002BE5D17B681B685B6903F0F2
:10222C004003002B36D07B681B681433FB60FB68C3
:10223C0053E8003FBB60BB6823F04003BB657B6881
:10224C001B681433BA6DBA617B617969BA6941E86C
:10225C0000233B613B69002BE5D17B68DB6B002BDA
:10226C0018D07B68DB6B00225A637B68DB6B1846EB
:10227C00FEF771FD0346002B0CD07B68DB6B184618
:10228C00FEF7A4FD0346202B04D17B6810225A6470
:10229C0003230AE07B680022DA857B68202283F81E
:1022AC0042207B6800221A63002318466837BD461B
:1022BC0080BD80B485B000AFF860B9601346FB8078
:1022CC00FB68BA689A62FB68FA889A85FB68FA8898
:1022DC00DA85FB6800225A64FB68222283F84220CC
:1022EC00FB681B69002B07D0FB681B68DA68FB686E
:1022FC001B6842F48072DA60FB681B685A69FB68E1
:10230C001B6842F001025A61FB681B68DA68FB68C3
:10231C001B6842F02002DA60002318461437BD46D1
:10232C0080BC704780B584B000AF78607B681B6858
:10233C001B6923F440517B68DA687B681B680A438D
:10234C001A617B689A687B681B691A437B685B69B6
:10235C001343BB607B681B68DB6823F4B05323F02A
:10236C000C037A681268B9680B43D3607B681B68EE
:10237C005B6923F440717B689A697B681B680A432C
:10238C005A617B681B682C4A934203D1FFF7BCFA55
:10239C00F86002E0FFF7A4FAF860FA6813469B00B5
:1023AC0013449A001A447B685B689B00B2FBF3F3FE
:1023BC00224AA2FB03235B091901FA6813469B000E
:1023CC0013449A001A447B685B689B00B2FBF3F2DF
:1023DC001A4BA3FB02035B09642000FB03F3D31A23
:1023EC001B013233154AA2FB03235B0903F0F003F4
:1023FC001944FA6813469B0013449A001A447B68EC
:10240C005B689B00B2FBF3F20C4BA3FB02035B0972
:10241C00642000FB03F3D31A1B013233074AA2FBDF
:10242C0003235B0903F00F027B681B680A449A6064
:10243C0000BF1037BD4680BD003801401F85EB51F1
:10244C0080B584B000AF3B600346FB710B46BB719B
:10245C0013467B710023FB73BB79002B05D0BB7932
:10246C00002B02D0BB79F72B02D90223FB733AE085
:10247C001F4ABB791370FB79002B21D11D4B1E4ACF
:10248C001A601E4B1E4A1A601E4B1F4A1A601F4BC5
:10249C001F4A1A601F4B00221A601F4B1F4A1A60FA
:1024AC001F4B204A1A60204B204A1A60104B187898
:1024BC003B7E79793A6800F039FD0346FB7301E005
:1024CC000223FB73FB7B002B0DD100F08BFF03462B
:1024DC00002B02D10323FB7305E0154AFB79137023
:1024EC00144B01221A70FB7B18461037BD4680BD79
:1024FC00A8010020B0010020B12F0008B401002079
:10250C00D92F0008AC01002091300008B801002040
:10251C00F52F0008BC010020C00100205931000833
:10252C00C401002029320008C8010020D93200085B
:10253C00A90100200D00002080B582B000AF00235F
:10254C00FB71094B1B78012B06D1084B1B68984774
:10255C00054B00221A7001E00623FB71FB7918462B
:10256C000837BD4680BD00BF0D000020B001002023
:10257C0090B583B000AF0023FB70504B1B78002B41
:10258C0001D0062395E0BB1C184600F04DFF034616
:10259C00012B40F08D80BB78032B00F2898001A2C7
:1025AC0052F823F0BD260008C1250008F3250008C9
:1025BC00BD260008424B1B68424A43494348984792
:1025CC000346FB70FB78002B6FD1404B1A78404BC5
:1025DC001B789A4203D03D4B1B78002B65D102200F
:1025EC0000F00CFF61E0384B1B681A78394B1A70FD
:1025FC00394B01221A7000237B601FE0374A7B683D
:10260C0012F83330002B1DD0344A7B6812F833207B
:10261C00304B1B789A420ED1304A7B68DB00134456
:10262C005B68294A126827491046984703461A46A0
:10263C00294B1A7007E07B6801337B607B680F2B9A
:10264C00DCDD00E000BF214B1B78002B2FD0224B90
:10265C001B78002B1DD01B4B00221A801D4B1A78A7
:10266C00194B1968174B1B88581C84B215480480E9
:10267C000B4462F07F02D2B21A70134B1A68114BE2
:10268C001B88591C88B20F4908801344124A1278CF
:10269C001A70134B1B680E4A10780B4A1168094AC2
:1026AC00128898470346FB7001E000BF00E000BFB2
:1026BC00002318460C37BD4690BD00BF0D0000200E
:1026CC00B8010020D4010020D0010020CC01002052
:1026DC00A8010020D6010020D70100201000002006
:1026EC00AC01002080B485B000AF78600B467B80D5
:1026FC00FF23FB73FF23BB7313E07B685A1C7A60C8
:10270C001A78BB7B5340DBB2BB600F4ABB681344E7
:10271C001A78FB7B5340BB730C4ABB6813441B7881
:10272C00FB737B885A1E7A80002BE6D1FB7B1B0245
:10273C001AB2BB7B1BB213431BB29BB218461437A5
:10274C00BD4680BC704700BFBC460008BC470008B3
:10275C0080B586B000AF786039600023BB753B68EC
:10276C001B88052B6CD17B6801331B789BB21B0239
:10277C00BB827B6802331B789AB2BB8A1343BB8241
:10278C00BB8A0133BB827B6803331B789BB21B0271
:10279C007B827B6804331B789AB27B8A13437B82DF
:1027AC007B8A002B49D07B8AB3F5FA6F45D27B68C4
:1027BC00FB603B6800221A80FB685A1CFA600122FD
:1027CC001A703B681B8801339AB23B681A807B8A6B
:1027DC0003F00703002B06D07B8ADB089BB2DBB22D
:1027EC000133FB7503E07B8ADB089BB2FB75FB684E
:1027FC005A1CFA60FA7D1A703B681B8801339AB236
:10280C003B681A807A8AB98A0023F868FDF764FF5E
:10281C000346FB72FB7A002B06D0FB7A184600F0BD
:10282C009BFD0346BB750DE03B681A88FB7D9BB294
:10283C0013449AB23B681A8004E00323BB7501E091
:10284C000323BB75BB7D18461837BD4680BD80B5CC
:10285C0084B000AF786039600023FB733B681B8841
:10286C00052B40D17B6801331B789BB21B02BB81CB
:10287C007B6802331B789AB2BB891343BB81BB893B
:10288C000133BB817B6804331B78002B28D17B6818
:10289C0003331B78FF2B04D07B6803331B78002B8E
:1028AC001ED100237B727B6803331B78FF2B02D174
:1028BC0001233B7201E000233B72B98907F1080048
:1028CC0001230122FDF708FF0346FB72FB7A002B64
:1028DC000BD0FB7A184600F03FFD0346FB7304E077
:1028EC000323FB7301E00323FB73FB7B18461037B8
:1028FC00BD4680BD80B584B000AF786039600023E0
:10290C00BB733B681B88052B54D97B6801331B7840
:10291C009BB21B02BB817B6802331B789AB2BB89CA
:10292C001343BB81BB890133BB817B6803331B78A9
:10293C009BB21B027B817B6804331B789AB27B8928
:10294C0013437B817B685B797B727B8903F0070384
:10295C00002B06D07B89DB089BB2DBB20133FB7307
:10296C0003E07B89DB089BB2FB737B89002B1ED0B9
:10297C007B89B3F5F66F1AD8FA7B7B7A9A4216D11B
:10298C007B68981D7A89B9890123FDF7A5FE03465A
:10299C003B723B7A002B06D03B7A184600F0DCFCED
:1029AC000346BB7308E03B6805221A8004E003234E
:1029BC00BB7301E00323BB73BB7B18461037BD46CA
:1029CC0080BD80B586B000AF786039600023BB75E0
:1029DC003B681B88052B6CD17B6801331B789BB241
:1029EC001B02BB827B6802331B789AB2BB8A1343EF
:1029FC00BB82BB8A0133BB827B6803331B789BB2DF
:102A0C001B027B827B6804331B789AB27B8A13434C
:102A1C007B827B8A002B49D07B8AB3F5FA6F45D237
:102A2C007B68FB603B6800221A80FB685A1CFA60CA
:102A3C0002221A703B681B8801339AB23B681A80D9
:102A4C007B8A03F00703002B06D07B8ADB089BB242
:102A5C00DBB20133FB7503E07B8ADB089BB2FB75B1
:102A6C00FB685A1CFA60FA7D1A703B681B880133AC
:102A7C009AB23B681A807A8ABB8A1946F868FDF7C5
:102A8C003EFE0346FB72FB7A002B06D0FB7A1846FF
:102A9C0000F062FC0346BB750DE03B681A88FB7DB9
:102AAC009BB213449AB23B681A8004E00323BB75B3
:102ABC0001E00323BB75BB7D18461837BD4680BDAE
:102ACC0080B584B000AF786039600023FB733B683D
:102ADC001B88052B22D17B6801331B789BB21B0210
:102AEC00BB817B6802331B789AB2BB891343BB81D1
:102AFC00BB890133BB817B68D81CB98901230122B6
:102B0C00FDF776FD0346FB72FB7A002B08D0FB7AAF
:102B1C00184600F021FC0346FB7301E00323FB7312
:102B2C00FB7B18461037BD4680BD80B584B000AF26
:102B3C00786039600023FB733B681B88052B46D9F2
:102B4C007B6801331B789BB21B02BB817B68023311
:102B5C001B789AB2BB891343BB81BB890133BB8100
:102B6C007B6803331B789BB21B027B817B6804332D
:102B7C001B789AB27B8913437B817B685B797B7270
:102B8C007B89002B20D07B89782B1DD87B89DBB2ED
:102B9C005B00DBB27A7A9A4216D17B68981D7A89EF
:102BAC00B9890123FDF724FD03463B723B7A002BC8
:102BBC0006D03B7A184600F0CFFB0346FB7308E0C7
:102BCC003B6805221A8004E00323FB7301E0032316
:102BDC00FB73FB7B18461037BD4680BD80B586B0B5
:102BEC0000AF786039600023FB753B681B88052BB0
:102BFC005CD17B6801331B789BB21B02BB827B6868
:102C0C0002331B789AB2BB8A1343BB82BB8A013353
:102C1C00BB827B6803331B789BB21B027B827B6875
:102C2C0004331B787B827B8A002B3CD07B8A7D2BE8
:102C3C0039D87B68FB603B6800221A80FB685A1C01
:102C4C00FA6003221A703B681B8801339AB23B6806
:102C5C001A807B8ADAB2FB68591CF9605200D2B236
:102C6C001A703B681B8801339AB23B681A807A8AC7
:102C7C00B98A0023F868FDF7BBFC0346FB72FB7AAC
:102C8C00002B06D0FB7A184600F066FB0346FB755A
:102C9C000EE03B681A887B8A5B009BB213449AB2A5
:102CAC003B681A8004E00323FB7501E00323FB75EA
:102CBC00FB7D18461837BD4680BD80B586B000AF89
:102CCC00786039600023FB753B681B88092B40F248
:102CDC0099807B6801331B789BB21B02BB827B689B
:102CEC0002331B789AB2BB8A1343BB82BB8A013373
:102CFC00BB827B6803331B789BB21B027B827B6895
:102D0C0004331B789AB27B8A13437B827B6805332E
:102D1C001B789BB21B023B827B6806331B789AB2F2
:102D2C003B8A13433B823B8A01333B827B680733EC
:102D3C001B789BB21B02FB817B6808331B789AB211
:102D4C00FB891343FB817B685B7A7B737B8A002B4B
:102D5C0056D07B8A7D2B53D8FB89002B50D0FB8916
:102D6C00792B4DD8FB895A007B7B9A4248D17B68E2
:102D7C0003F10A00FA89398A0123FDF739FC03466D
:102D8C00BB75BB7D002B31D17B68BB603B680022DF
:102D9C001A80BB685A1CBA6017221A703B681B88D1
:102DAC0001339AB23B681A807B8ADAB2BB68591C31
:102DBC00B9605200D2B21A703B681B8801339AB2C8
:102DCC003B681A807A8AB98A0023B868FDF710FC30
:102DDC000346BB75BB7D002B08D13B681A887B8AE8
:102DEC005B009BB213449AB23B681A80BB7D002BEC
:102DFC0008D0BB7D184600F0AFFA0346FB7501E026
:102E0C000323FB75FB7D18461837BD4680BD80B586
:102E1C0086B000AF786039600023FB753B681B8877
:102E2C00052B5FD17B6801331B789BB21B02BB82E5
:102E3C007B6802331B789AB2BB8A1343BB82BB8A72
:102E4C000133BB827B6803331B789BB21B027B82F2
:102E5C007B6804331B789AB27B8A13437B827B8A10
:102E6C00002B3CD07B8A7C2B39D87B68FB603B6881
:102E7C0000221A80FB685A1CFA6004221A703B6804
:102E8C001B8801339AB23B681A807B8ADAB2FB68E2
:102E9C00591CF9605200D2B21A703B681B8801337E
:102EAC009AB23B681A807A8ABB8A1946F868FDF791
:102EBC0059FB0346FB72FB7A002B06D0FB7A1846B3
:102ECC0000F04AFA0346FB750EE03B681A887B8AD1
:102EDC005B009BB213449AB23B681A8004E0032354
:102EEC00FB7501E00323FB75FB7D18461837BD46C7
:102EFC0080BD000080B582B000AF786039607B681F
:102F0C000133084A12880849184600F02AFD054B7F
:102F1C001B8801339AB23B681A8000231846083785
:102F2C00BD4680BDF8010020D801002080B584B0DA
:102F3C0000AF3A601A460346FB710B46BB71134651
:102F4C007B710023FB7300F029FA7B79B879082296
:102F5C00396800F0E5FA0346012B02D00323FB731A
:102F6C0016E03B68B3F5964F02D92323BB6005E00E
:102F7C003B685B000A4AB2FBF3F3BB60BB689BB2D5
:102F8C00184600F011FB0346012B01D00323FB7301
:102F9C0000F014FAFB7B18461037BD4680BD00BF0D
:102FAC00A07F170080B500AF00F0F8F9064B0022A7
:102FBC001A700021012000F055FA00F005FB00F01A
:102FCC00FDF900BF80BD00BFFB01002080B500AF44
:102FDC0000F0E4F90021002000F044FA00F004FBBA
:102FEC0000F0ECF900BF80BD80B586B000AFF86092
:102FFC00B9607A600023BB750023FB7500F0CEF935
:10300C001A4B1B889BB2FF2B05D9194B194A9C21D3
:10301C00194800F0F5FA154B1B889BB2032B1BD9F2
:10302C00124B1B889BB219461448FFF75BFB0346F7
:10303C00002B11D1114B1B78DAB2FB681A700B4BB9
:10304C001B889BB2033B9AB27B681A80BB680C4A04
:10305C001A600123BB7501E00523FB7500F0AEF986
:10306C00FB7D18461837BD4680BD00BF020300200B
:10307C0090450008BC480008B8450008FC01002039
:10308C00FD01002080B584B000AF03463960FB71B0
:10309C001346BB800023FB7300F080F9264B1B7892
:1030AC00DBB2012B3FD13B68013B244A1360244B1C
:1030BC0001221A80214B1B68FA791A70204B1B884D
:1030CC009AB2BB8813449AB21D4B1A801B4B1B68D7
:1030DC001B4A128892B211461846FFF703FB0346AF
:1030EC00BB81174B1B889BB25A1C91B2144A11809E
:1030FC001A46BB89D9B2134B9954BB891B0A99B296
:10310C000F4B1B889BB25A1C90B20D4A10801A466A
:10311C00C9B20C4B99540C4B01221A70012100209E
:10312C0000F0A0F901E00523FB7300F047F9FB7BED
:10313C0018461037BD4680BDFB010020FC02002064
:10314C0000030020FC010020FA01002080B582B0B1
:10315C0000AF0023FB712A4B1B78DBB2002B05D090
:10316C00284B294AE521294800F04AFABB1D18468C
:10317C0000F0FCF9264B1B78DBB2032B3BD801A2E9
:10318C0052F823F0A1310008AD310008D531000808
:10319C00A731000800F018FA2DE000F015FA2AE02B
:1031AC001C4B00221A801B4B1B889BB25A1C91B2E1
:1031BC00184A11801A46B979174B9954144B0222AC
:1031CC001A7000F001FA16E0124B1B889BB2FF2B11
:1031DC000BD8104B1B889BB25A1C91B20D4A118014
:1031EC001A46B9790C4B995402E0094B03221A7018
:1031FC0000F0EAF900BFFB7918460837BD4680BDE0
:10320C00FA010020F4450008CC480008B845000835
:10321C00FB01002002030020FC01002080B582B0DD
:10322C0000AF0023FB71224B1B78DBB2012B06D0C5
:10323C00204B214A4FF49071204800F0E1F9204BCB
:10324C001B78DBB2002B02D0012B05D02AE0002129
:10325C00012000F007F925E01A4B1B889BB2002BCC
:10326C0013D0194B1B681B78DBB2184600F06AF9B7
:10327C00154B1B680133144A1360124B1B889BB20D
:10328C00013B9AB20F4B1A800BE0032000F0B6F80A
:10329C000346FB710021012000F0E4F8084B0022EA
:1032AC001A7000BFFB7918460837BD4680BD00BFB9
:1032BC00FB01002010460008E0480008B845000853
:1032CC00FA01002000030020FC02002080B582B02F
:1032DC0000AF0023FB711C4B1B78DBB2032B28D0F7
:1032EC00032B10DC002B02D0022B06D00BE00020AD
:1032FC0000F084F80346FB711CE0012000F07EF81E
:10330C000346FB7116E0104B1B78DBB2002B11D07F
:10331C000D4B1B78DBB2022B0CD00B4B1B78DBB2AA
:10332C00032B07D0094B0A4A40F25911094800F007
:10333C0067F900BF00F058F9034B01221A70FB79B2
:10334C0018460837BD4680BDFB0100202C460008FE
:10335C00F4480008B845000880B485B000AF0346B7
:10336C00FB71FB79072B0CD0072B0DDC002B02D04B
:10337C00012B03D008E00023FB7308E00223FB734E
:10338C0005E00623FB7302E00423FB7300BFFB7B09
:10339C0018461437BD4680BC7047000080B400AF9F
:1033AC0072B600BF044B1B680133034A136000BFA5
:1033BC00BD4680BC704700BF0403002080B400AF42
:1033CC00074B1B68013B064A1360054B1B68002B1F
:1033DC0001D162B600BF00BFBD4680BC704700BFC4
:1033EC000403002080B400AF034B00221A700123A9
:1033FC001846BD4680BC70470903002080B483B0DA
:10340C0000AF0346FB71064B01221A70054AFB798B
:10341C001370012318460C37BD4680BC704700BFA3
:10342C00090300200803002080B485B000AF786049
:10343C000023FB73094B1B78002B08D0084B1A7820
:10344C007B681A70054B00221A700123FB73FB7BFF
:10345C0018461437BD4680BC704700BF09030020D6
:10346C000803002080B582B000AF03460A46FB710A
:10347C001346BB71FB79002B0FD0164B1B68164AF9
:10348C00118800221846FDF748FE144B1B680122D8
:10349C0013491846FEF7DDFD04E0104B1B68184677
:1034AC00FEF764FEBB79002B0BD00A4B1B680A4A53
:1034BC00118801221846FDF730FE0A4B1B6898470D
:1034CC0004E0064B1B681846FEF7E8FD00BF083702
:1034DC00BD4680BD14030020100300200C03002007
:1034EC0018030020C401002080B485B000AFF86040
:1034FC00B9601346FB80074AFB681360064ABB6839
:10350C001360064AFB88138000BF1437BD4680BC8D
:10351C00704700BF0C030020140300201003002090
:10352C0080B483B000AF396011461A460346FB7174
:10353C000B46BB7113467B71012318460C37BD46F5
:10354C0080BC704780B582B000AF0346FB71064B60
:10355C001B68F91D01221846FEF746FD012318468B
:10356C000837BD4680BD00BF0C03002080B483B07B
:10357C0000AF7860044B1A787B681A7001231846E8
:10358C000C37BD4680BC70471803002080B483B054
:10359C0000AF7860034A7B68136000BF0C37BD46F0
:1035AC0080BC70471C03002080B483B000AF03467E
:1035BC00FB80044AFB881380012318460C37BD4658
:1035CC0080BC70472003002080B500AF044B002264
:1035DC001A80044B1B681846FEF718FA00BF80BD12
:1035EC00220300201C03002080B500AF034B1B6896
:1035FC001846FEF75DFA00BF80BD00BF1C0300201B
:10360C001FB514461A46094B05461B68D8684CB1C1
:10361C00074BCDE9013400912B46064900F0B2F876
:10362C0000F0ADF9044B1C46F3E700BFE8000020A6
:10363C000A4900081749000845490008002310B53D
:10364C000446C0E90033C0E90433836081814366DA
:10365C00C2818361194608225C3000F006F90D4BDB
:10366C00246263620C4BA3620C4BE3620C4B23632E
:10367C000C4B9C4206D003F16802944202D0D0332A
:10368C009C4205D104F15800BDE8104000F066B929
:10369C0010BD00BFF1370008133800084B38000884
:1036AC006F38000824030020024A0349034800F045
:1036BC007BB800BF90000020314200089C00002025
:1036CC0041680C4B10B59942044601D000F0AAFD9C
:1036DC00A168094B994202D0204600F0A3FDE16895
:1036EC00064B994204D02046BDE8104000F09ABD2C
:1036FC0010BD00BF240300208C030020F403002025
:10370C0010B50B4B0B4C0C4A20461A6004210022BE
:10371C00FFF794FF04F1680001220921FFF78EFFE7
:10372C0004F1D0000222BDE810401221FFF786BF41
:10373C005C04002024030020B5360008014800F08A
:10374C000EB900BF65040020014800F009B900BFA4
:10375C006504002010B50446FFF7F0FF236A1BB187
:10376C00BDE81040FFF7F0BF044B2362044B1B680D
:10377C00002BF5D1FFF7C4FFF2E700BFCD360008F0
:10378C005C0400200EB403B5014603AB054853F8A6
:10379C00042B0068019300F015FA02B05DF804EBFD
:1037AC0003B07047E80000202DE9F843074688462F
:1037BC0014460026D4E90195B9F1010905D5246810
:1037CC00002CF7D13046BDE8F883AB89012B07D923
:1037DC00B5F90E30013303D029463846C0470643AD
:1037EC006835E9E710B50C46B1F90E1000F068F831
:1037FC000028ABBF636DA3891B1823F48053ACBFA7
:10380C006365A38110BD2DE9F0411F468B890546E8
:10381C00DB050C46164605D502230022B1F90E1025
:10382C0000F03CF8A389324623F48053A381284648
:10383C003B46B4F90E10BDE8F04100F053B810B59A
:10384C000C46B1F90E1000F029F8431CA38915BFE2
:10385C00606523F4805343F48053A38118BFA38184
:10386C0010BDB1F90E1000F009B8034602449342A2
:10387C0000D1704703F8011BF9E7000038B50023AD
:10388C00054D044608462B60FDF769F8431C02D130
:10389C002B6803B1236038BD6004002038B50446A2
:1038AC00084611460022054D2A601A46FDF77BF8A2
:1038BC00431C02D12B6803B1236038BD6004002087
:1038CC0038B50446084611460022054D2A601A46B2
:1038DC00FDF70CF8431C02D12B6803B1236038BDF3
:1038EC006004002038B50446084611460022054DF8
:1038FC002A601A46FDF717F8431C02D12B6803B156
:10390C00236038BD60040020014B1868704700BF6D
:10391C00E800002070B500260C4D0D4C641BA41063
:10392C00A64209D100F022FE00260A4D0A4C641B67
:10393C00A410A64205D170BD55F8043B984701363A
:10394C00EEE755F8043B98470136F2E77C4900084E
:10395C007C4900087C490008804900087047704782
:10396C0070470A44914200F1FF3300D1704710B503
:10397C0011F8014B914203F8014FF9D110BD06200B
:10398C0008B500F035FD0120FCF7A6FF38B505465B
:10399C00002940D051F8043C0C1F002BB8BFE41890
:1039AC0000F0DCF81C4A136833B9636014602846D5
:1039BC00BDE8384000F0D8B8A34208D920682118D7
:1039CC008B4201BF19685B6809182160EDE71A4644
:1039DC005B680BB1A342FAD911685018A0420BD105
:1039EC0020680144501883421160E0D118685B686C
:1039FC00084410605360DAE702D90C232B60D6E739
:103A0C00206821188B4201BF19685B680918216076
:103A1C0063605460CBE738BD6804002070B50E4E6F
:103A2C000C463168054611B900F0FEFC30602146A9
:103A3C00284600F0F9FC431C0AD0C41C24F00304F3
:103A4C00A04207D0211A284600F0EEFC013001D12B
:103A5C004FF0FF34204670BD6C0400202DE9F84374
:103A6C00CD1C25F0030508350C2D38BF0C25002D79
:103A7C00074601DBA94205D90C2300263B603046E2
:103A8C00BDE8F883DFF8D08000F068F8D8F8003093
:103A9C001C465CBB29463846FFF7C0FF431C044656
:103AAC0055D1D8F800402646002E45D1002C48D0E0
:103ABC0023683146384604EB030900F0B5FC814518
:103ACC003FD1216838466D1A2946FFF7A7FF013010
:103ADC0037D023682B442360D8F80030002B38D023
:103AEC005A68A2422BD100225A600FE02268521B66
:103AFC001FD40B2A17D96119A342256018BF59602E
:103B0C00636808BFC8F8001062514B60384604F176
:103B1C000B0600F029F826F00706231DF21AAED08A
:103B2C009B1BA350ABE7A3426268DDD1C8F8002011
:103B3C00ECE723466468ACE734467668B4E7134692
:103B4C00CCE70C2338463B6000F00EF897E7256075
:103B5C00DCE75B60FFDE00BF680400200148FFF774
:103B6C00FEBE00BF640400200148FFF7F9BE00BF91
:103B7C0064040020936810B4013B002B936007DAB7
:103B8C009469A34201DB0A2902D110BC00F072BB7C
:103B9C001368581C10601970084610BC7047F8B5B3
:103BAC0006460F461446D518AC4201D1002007E05A
:103BBC003A46304614F8011BFFF7DCFF431CF3D1E7
:103BCC00F8BD00002DE9F04F0D4614469846064608
:103BDC009DB018B1036A0BB9FFF7BCFD6B6ED9072A
:103BEC0005D4AB899A0502D4A86DFFF7B8FEAB8952
:103BFC001B0701D52B699BB92946304600F078FB91
:103C0C0070B16B6EDC0704D54FF0FF301DB0BDE812
:103C1C00F08FAB899805F7D4A86DFFF7A1FEF3E7F9
:103C2C000023099320238DF8293030234FF001090C
:103C3C00CDF80C80DFF8AC818DF82A3023469A46FB
:103C4C0013F8012B0AB1252AF9D1BAEB040B0BD0CE
:103C5C005B46224629463046FFF7A1FF013000F0B3
:103C6C00A980099A5A4409929AF80030002B00F066
:103C7C00A18000234FF0FF32CDE905230AF1010AA0
:103C8C00049307938DF853301A935446052214F875
:103C9C00011B544800F0D8FB049AD8B9D10644BF94
:103CAC0020238DF85330130744BF2B238DF853304A
:103CBC009AF800302A2B15D0544600204FF00A0CED
:103CCC00079A214611F8013B303B092B4DD9B0B175
:103CDC00079214E0A0EB080309FA03F31343A2467E
:103CEC000493D2E7039B191D1B680391002BBBBFE8
:103CFC005B4242F0020207930793B8BF0492237809
:103D0C002E2B0CD163782A2B34D1039B02341A1D31
:103D1C001B680392002BB8BF4FF0FF330593DFF8FD
:103D2C00C8A003225046217800F08EFB38B1402207
:103D3C00049BA0EB0A00824013430134049314F853
:103D4C00011B062229488DF8281000F07DFB002865
:103D5C003FD0274B1BBB039B073323F007030833D0
:103D6C000393099B3B44099368E70C4601200CFB29
:103D7C000232A6E700234FF00A0C194601340593D2
:103D8C00204610F8012B303A092A03D9002BC6D053
:103D9C000591C4E7044601230CFB0121F0E703ABBA
:103DAC0000932A463046134B04A9AFF30080074614
:103DBC00781CD6D16B6ED90705D4AB899A0502D481
:103DCC00A86DFFF7CDFDAB895B063FF51DAF0998DC
:103DDC001CE703AB00932A463046064B04A900F0BF
:103DEC007DF8E4E7464900084C49000850490008B2
:103DFC0000000000AB3B00082DE9F0471646994641
:103E0C008A680B6907469342B8BF1346336091F832
:103E1C0043200C46DDF820800AB10133336023685F
:103E2C00990642BF336802333360256815F00605E6
:103E3C0006D104F1190AE36832689B1AAB422BDCF9
:103E4C0094F84320131E226818BF0123920630D425
:103E5C004946384604F14302C047013023D0236859
:103E6C00226903F00603042B14BF002533684FF0BE
:103E7C00000608BFE56804F11A0408BFED1A54F8EF
:103E8C00123C08BF25EAE5759342C4BF9B1AED1896
:103E9C00B5421AD1002008E0012352464946384663
:103EAC00C047013003D14FF0FF30BDE8F08701353A
:103EBC00C1E73020E11881F843005A1C94F84510F2
:103ECC002244023382F84310C2E7012322464946BA
:103EDC003846C0470130E6D00136D9E72DE9FF4717
:103EEC000F7E9146782F80460C469A460C9D01F128
:103EFC00430207D8622F0AD8002F00F0D580582F24
:103F0C0000F0C18004F1420584F842703AE0A7F158
:103F1C006303152BF6D801A151F823F0813F00085B
:103F2C00953F0008113F0008113F0008113F0008A1
:103F3C00113F0008953F0008113F0008113F000891
:103F4C00113F0008113F00089B400008C13F0008CA
:103F5C0055400008113F0008113F0008BD40000803
:103F6C00113F0008C13F0008113F0008113F000835
:103F7C005D4000082B681A1D1B682A6004F142057D
:103F8C0084F842300123A0E020682B68070603F177
:103F9C000401296001D51E6803E04606FBD5B3F980
:103FAC000060002E03DA2D23764284F843300A2376
:103FBC00594812E02B682068191D2960050601D5A7
:103FCC001E6802E04106FBD51E886F2F0CBF08232C
:103FDC000A235148002184F843106568002DA8BFBE
:103FEC002168A560A4BF21F0040121600EB9002D49
:103FFC004BD01546B6FBF3F103FB1167C75D05F813
:10400C00017D3746BB420E46F4D9082B0BD12368F1
:10401C00DE0708D5236961689942DEBF302305F8B5
:10402C00013C05F1FF35521B22614B4621464046AF
:10403C00CDF800A003AAFFF7DFFE01304AD14FF004
:10404C00FF3004B0BDE8F087236843F02003236001
:10405C007827324884F84570236829681F0651F880
:10406C00046B02D45F0648BFB6B2DF0748BF43F00B
:10407C002003296048BF23601EB9236823F0200366
:10408C0023601023A6E72448E4E71546BDE72B6818
:10409C002668181D6169286035061B6801D51960F2
:1040AC0002E07006FBD51980002315462361BCE79E
:1040BC002B6800211A1D2A601D686268284600F0D2
:1040CC00C3F908B1401B606063682361002384F866
:1040DC004330AAE72A46494640462369D047013077
:1040EC00ADD023689B0713D4E068039B9842B8BFFC
:1040FC001846A6E70123324649464046D0470130D0
:10410C009DD00135E36803995B1AAB42F2DCEBE717
:10411C00002504F11906F5E757490008684900081D
:10412C008A89F8B5054610070C4657D44B68002B06
:10413C0004DC0B6C002B01DC0020F8BDE66A002EC1
:10414C00FAD0002312F480522F68216A2B6032D0EF
:10415C00606DA3895A0705D56368C01A636B0BB1F0
:10416C00236CC01A00230246E66A2846216AB0472F
:10417C00431CA38906D129681D292BD8284A0A413A
:10418C00D60727D4002262602269D904226004D5A4
:10419C00421C01D12B6803B96065616B2F6000294B
:1041AC00CAD004F14403994202D02846FFF7EEFB33
:1041BC0000206063C1E701232846B047411CC8D1E9
:1041CC002B68002BC5D01D2B01D0162B01D12F60D5
:1041DC00B2E7A38943F04003A381AEE70F69002F38
:1041EC00AAD0930718BF00230E6808BF4B69F61BB3
:1041FC000F608B60002E9FDD33463A462846216ABD
:10420C00D4F828C0E047002806DCA3894FF0FF3023
:10421C0043F04003A38190E70744361AEAE700BF56
:10422C00FEFFBFDF38B50B6905460C4613B90025F8
:10423C00284638BD18B1036A0BB9FFF78BFAB4F9ED
:10424C000C30002BF3D0626ED00704D4990502D445
:10425C00A06DFFF784FB28462146FFF761FF636ED4
:10426C000546DA07E4D4A3899B05E1D4A06DFFF7DA
:10427C0077FBDDE7F8B50E461446054618B1036A20
:10428C000BB9FFF767FAA369A360A3891A0725D5B1
:10429C0023691BB323682269F6B2981A63693746FF
:1042AC00834204DC21462846FFF7BCFFE0B9A36833
:1042BC00013BA36023685A1C22601E706269431C78
:1042CC009A4204D0A389DB0706D50A2E04D12146D5
:1042DC002846FFF7A7FF38B93846F8BD21462846CF
:1042EC0000F006F80028D5D04FF0FF37F4E70000B7
:1042FC0038B52A4B054618680C4618B1036A0BB939
:10430C00FFF728FAA389B4F90C20180722D4D90690
:10431C0007D409232B6042F040034FF0FF30A381F8
:10432C0034E0580712D5616B41B104F14403994252
:10433C0002D02846FFF72AFB00236363A38923F0EE
:10434C002403A3810023636023692360A38943F0C2
:10435C000803A38123694BB9A38903F42073B3F534
:10436C00007F03D02146284600F0A1F8A089B4F9BB
:10437C000C2010F001030AD00023A36063695B4298
:10438C00A361236943B910F08000C4D138BD810703
:10439C0058BF6369A360F4E70020F7E7E80000204A
:1043AC001F2938B504460D4604D9162303604FF077
:1043BC00FF3038BDC26B12B152F821304BB92046D8
:1043CC0000F030F82A4601462046BDE8384000F09F
:1043DC0017B8012B0AD0591C03D1162303600120F6
:1043EC00E7E70024284642F8254098470020E0E7FC
:1043FC00024B01461868FFF7D3BF00BFE80000204E
:10440C0038B50023064D0446084611462B60FCF7D0
:10441C0053FA431C02D12B6803B1236038BD00BF93
:10442C0060040020FCF741BA38B50023054D044662
:10443C0008462B60FCF7C4FA431C02D12B6803B16D
:10444C00236038BD60040020034610B5C9B2024495
:10445C009342184601D1002003E0047801338C42CA
:10446C00F6D110BD70B50C46B1F90E1015460029E9
:10447C001E4696B00CDAA389002113F0800F0CBFF6
:10448C004FF480634023002031602B6016B070BD68
:10449C006A4600F049F80028EDDB019901F47041FF
:1044AC00A1F50053594259414FF48063EBE78B89D6
:1044BC0073B59D0706460C4607D504F147032360E8
:1044CC0023610123636102B070BD6A4601ABFFF743
:1044DC00C9FF009905463046FFF7C0FA48B9B4F950
:1044EC000C309A05EFD423F0030343F00203A381AD
:1044FC00E3E7A389206043F08003A381009B206144
:10450C006361019B5BB13046B4F90E1000F01EF8EC
:10451C0028B1A38923F0030343F00103A381A389EA
:10452C001D43A581CFE7000038B50023064D044696
:10453C00084611462B60FCF71DFA431C02D12B6870
:10454C0003B1236038BD00BF6004002038B50023E0
:10455C00054D044608462B60FCF71BFA431C02D1A0
:10456C002B6803B1236038BD60040020F8B500BF90
:10457C00F8BC08BC9E467047F8B500BFF8BC08BC38
:04458C009E46704790
:104590007573526376427566666572506F73203C20
:1045A000204D425F5345525F5044555F53495A4531
:1045B0005F4D4158000000002E2E2F447269766531
:1045C00072732F667265656D6F646275732D706F9F
:1045D00072742D68616C2D73746D33326631787826
:1045E0002D6D61737465722F5372632F6D627274D7
:1045F000752E630065536E645374617465203D3D90
:104600002053544154455F54585F49444C45000081
:10461000655263765374617465203D3D2053544167
:1046200054455F52585F49444C450000282065526C
:1046300063765374617465203D3D20535441544565
:104640005F52585F494E49542029207C7C20282005
:10465000655263765374617465203D3D2053544127
:1046600054455F52585F5243562029207C7C2028B5
:1046700020655263765374617465203D3D20535428
:104680004154455F52585F4552524F522029000015
:1046900000000000000000000102030406070809F2
:1046A00000000000010203040203040506070809D4
:1046B0000A0B0C0D0E0F10100102000000C181400A
:1046C00001C0804101C0804100C1814001C08041E2
:1046D00000C1814000C1814001C0804101C08041D2
:1046E00000C1814000C1814001C0804100C18140C2
:1046F00001C0804101C0804100C1814001C08041B2
:1047000000C1814000C1814001C0804100C18140A1
:1047100001C0804101C0804100C1814000C1814091
:1047200001C0804101C0804100C1814001C0804181
:1047300000C1814000C1814001C0804101C0804171
:1047400000C1814000C1814001C0804100C1814061
:1047500001C0804101C0804100C1814000C1814051
:1047600001C0804101C0804100C1814001C0804141
:1047700000C1814000C1814001C0804100C1814031
:1047800001C0804101C0804100C1814001C0804121
:1047900000C1814000C1814001C0804101C0804111
:1047A00000C1814000C1814001C0804100C1814001
:1047B00001C0804101C0804100C1814000C0C101F1
:1047C000C30302C2C60607C705C5C404CC0C0DCD81
:1047D0000FCFCE0E0ACACB0BC90908C8D81819D9F1
:1047E0001BDBDA1A1EDEDF1FDD1D1CDC14D4D51521
:1047F000D71716D6D21213D311D1D010F03031F111
:1048000033F3F23236F6F737F53534F43CFCFD3D40
:10481000FF3F3EFEFA3A3BFB39F9F83828E8E92930
:10482000EB2B2AEAEE2E2FEF2DEDEC2CE42425E5E0
:1048300027E7E62622E2E323E12120E0A06061A150
:1048400063A3A26266A6A767A56564A46CACAD6D00
:10485000AF6F6EAEAA6A6BAB69A9A86878B8B97970
:10486000BB7B7ABABE7E7FBF7DBDBC7CB47475B5A0
:1048700077B7B67672B2B373B17170B05090915190
:104880009353529296565797559594549C5C5D9DC0
:104890005F9F9E5E5A9A9B5B9959589888484989B0
:1048A0004B8B8A4A4E8E8F4F8D4D4C8C4484854560
:1048B000874746868242438341818040654D42520C
:1048C000545552656365697665000000784D425223
:1048D00054555265636569766546534D0000000086
:1048E000784D425254555472616E736D69744653DB
:1048F0004D000000784D4252545554696D65725414
:10490000333545787069726564002C2066756E6376
:1049100074696F6E3A2000617373657274696F6EAB
:104920002022257322206661696C65643A206669DD
:104930006C6520222573222C206C696E652025640D
:10494000257325730A00232D302B2000686C4C0042
:10495000656667454647003031323334353637387F
:1049600039414243444546003031323334353637DD
:0C49700038396162636465660000000075
:04497C0031010008FD
:044980000D0100081D
:10498400E803D0070024F400100000000102000036
:1049940011000000012F0008040000001B2E000875
:1049A40003000000E92B000810000000372B00086A
:1049B40006000000CD2A000817000000C72C0008DC
:1049C400010000005D270008050000005B280008C6
:1049D4000F0000000129000802000000CF29000890
:1049E40000000000000000000000000000000000C3
:1049F40000000000000000000000000000000000B3
:104A040000000000000000000000000000000000A2
:104A14000000000003000000240300200000000048
:104A2400240300208C030020F40300200000000075
:104A34000000000000000000000000000000000072
:104A44000000000000000000000000000000000062
:104A54000000000000000000000000000000000052
:0C4A640000000000000000009C0000208A
:0400000508000A45A0
:00000001FF
